:020000040800F2
:1000000000800120A9020008B1020008B502000822
:10001000290300082D0300087503000800000000F4
:10002000000000000000000000000000BD03000808
:10003000C103000800000000C5030008091C0008F7
:10004000A5170008A5170008A5170008A5170008A0
:10005000A5170008A5170008A5170008A517000890
:10006000A5170008A5170008A5170008A517000880
:10007000A5170008A5170008A5170008A517000870
:10008000A5170008A5170008A51700080000000024
:10009000000000000000000000000000A51700089C
:1000A000A5170008A5170008A5170008A517000840
:1000B000A5170008A5170008A5170008A517000830
:1000C000A5170008A5170008A5170008A517000820
:1000D000A5170008A5170008151C0008000000005F
:1000E000A5170008A5170008A517000800000000C4
:1000F000000000000000000000000000A51700083C
:1001000000000000A5170008A5170008A5170008A3
:1001100000000000000000000000000000000000DF
:10012000A5170008A5170008A5170008A5170008BF
:10013000A5170008000000000000000000000000FB
:10014000000000000000000000000000A5170008EB
:10015000A5170008A5170008A5170008A51700088F
:10016000A5170008A5170008000000000000000007
:10017000000000000000000000000000000000007F
:1001800000000000A51700080000000000000000AB
:10019000A517000800B583B001F06CFA304B314A66
:1001A0001360314A1360314B314A03E01168196022
:1001B000043304322F498B42F8D32A4B1A682E4B52
:1001C0009A4204D1284B1A682C4B9A4200D0FEE781
:1001D000234B2B4A13602B4A13602B4B02E0002267
:1001E0001A600433294A9342F9D3254B1B6813B98B
:1001F000244B1B6803B1FEE701F048FA694601A8E9
:1002000001F0E2F9224C234B1C1BA410002504E052
:100210001F4B53F8253098470135AC42F8DC1E4C93
:100220001E4B1C1BA410002504E01B4B53F825306B
:1002300098470135AC42F8DC0099019801F090FC38
:100240000546174C174B1C1BA41004E0013C144B33
:1002500053F824309847002CF8DC284601F090F938
:10026000BABADECA00000020E4010020000000202D
:10027000442B0008E8010020785634123254769856
:10028000E8010020C8020020E8010020CC02002084
:10029000000400080004000800040008000400082E
:1002A000000400080004000808B5FFF773FF00BF52
:1002B00000BEFEE71EF0040F0CBFEFF30880EFF363
:1002C00009807146414A10472DE9F04182B0044649
:1002D0008846134B5E6B9F6B9D6A1B6B13F0020F7E
:1002E0000DD00F4BDB6A002B09DA4BF6AB6101F046
:1002F00049FA20B14FF00042094BDA620CE009489C
:1003000001F06AF9CDF800803B4632462946204686
:1003100001F0C0F900BEFEE702B0BDE8F08100BF09
:1003200000ED00E05828000800BEFEE71EF0040FB4
:100330000CBFEFF30880EFF309807146244A1047A1
:100340002DE9F04182B004468846084B5E6B9F6BF6
:100350009D6A074801F040F9CDF800803B463246DF
:100360002946204601F096F900BEFEE700ED00E0C8
:10037000682800081EF0040F0CBFEFF30880EFF3AD
:1003800009807146134A10472DE9F04182B00446B6
:100390008846084B5E6B9F6B9D6A074801F01CF90D
:1003A000CDF800803B4632462946204601F072F9DE
:1003B00000BEFEE700ED00E07428000800BEFEE786
:1003C00000BEFEE700BEFEE770470000C90200085D
:0803D000410300088903000845
:1003D800442B000800000020E8010020442B0008FE
:1003E8000000001000000010E8010020CC020020EE
:0803F8000000001000000010DD
:1004000010B50446074B1B680748A0FB0330800962
:1004100000F092F8002221464FF0FF3000F04EF835
:10042000002010BD0C000020D34D621008B50B4B0E
:100430001A6842F400721A601A6842F480621A6004
:100440001A6842F480721A60032000F025F8002038
:10045000FFF7D6FF01F0A4FB002008BD003C0240DE
:10046000024A136801331360704700BF7C0200200A
:10047000014B1868704700BF7C02002010B582B0A5
:100480000190FFF7F5FF0446FFF7F2FF001B019B09
:100490009842F9D302B010BD074AD36823F4E06351
:1004A0001B041B0C000200F4E060184340F0BF6026
:1004B00040F40030D060704700ED00E030B4164BDF
:1004C000DB68C3F30223C3F10704042C28BF042410
:1004D0001D1D062D01D9DD1E00E00025012303FAB4
:1004E00004F4013C2140A940AB40013B1A400A43BF
:1004F000002806DA00F00F001201D2B2074B1A549E
:1005000007E01201D2B200F1604000F5614080F8CE
:10051000002330BC704700BF00ED00E014ED00E0A8
:10052000420900F01F00012303FA00F0014B43F8D9
:100530002200704700E100E00138B0F1807F0AD26C
:10054000064B5860F021064A82F82310002098607C
:1005500007221A6070470120704700BF10E000E0DA
:1005600000ED00E0042805D1054A136843F00403B8
:1005700013607047024A136823F004031360704746
:1005800010E000E0704700BF08B5FFF7FBFF08BDB3
:1005900090F83530DBB2022B03D080234365012075
:1005A0007047052380F835300268136823F0010393
:1005B00013600020704700BFF0B583B00024BBE09B
:1005C0000123A3400A6803EA0205AB4240F0B3806E
:1005D0004A68022A01D0122A10D1E608083650F8DB
:1005E00026C004F0070297000F22BA402CEA020E40
:1005F0000A69BA404EEA020240F826200268670003
:100600000326BE40F64302EA060E4A6802F00302E1
:10061000BA404EEA020202604A6802F1FF3EBEF1B1
:10062000010F03D9112A01D0122A10D1826806EADB
:10063000020ECA68BA404EEA02028260426822EAAA
:1006400003034A68C2F30012A2401A434260C3681F
:100650001E408B68BB403343C3604B6813F0805F20
:1006600069D000230193374B5A6C42F480425A649C
:100670005B6C03F480430193019BA608B21C324BD0
:1006800053F8222004F003039B000F279F4022EA27
:1006900007072E4A904211D002F5806290420FD097
:1006A00002F5806290420DD002F5806290420BD03C
:1006B00002F58062904209D1042208E0002206E09F
:1006C000012204E0022202E0032200E0072202FAF3
:1006D00003F33B4302361C4A42F826301C4B1A688F
:1006E000EB4302EA03064F6817F4803F01D045EA66
:1006F0000206174A1660526803EA02064F6817F4AA
:10070000003F01D045EA0206114A5660926803EAAA
:1007100002064F6817F4801F01D045EA02060C4A12
:100720009660D26813404E6816F4001F01D045EA67
:100730000203074AD36001340F2C7FF641AF03B0A8
:10074000F0BD00BF00380240003801400000024008
:10075000003C01400369194201D00120704700208C
:10076000704700BF436959404161704730B583B05D
:100770000446036813F0010F3CD0AD4B9B6803F0B7
:100780000C03042B0AD0AA4B9B6803F00C03082B24
:100790000CD1A74B5B6813F4800F07D0A44B1B68E8
:1007A00013F4003F26D0636823BB6EE12279A14B8E
:1007B0001A7063687BB1FFF75BFE054605E0FFF743
:1007C00057FE401B642800F26281994B1B6813F4AA
:1007D000003FF4D00EE0FFF74BFE054605E0FFF7C3
:1007E00047FE401B642800F25481914B1B6813F4B0
:1007F000003FF4D1236813F0020F5AD08C4B9B6852
:1008000013F00C0F0AD08A4B9B6803F00C03082BE3
:100810001BD1874B5B6813F4800F16D1844B1B6888
:1008200013F0020F03D0E368012B40F034818048BD
:10083000036823F0F8012369F82292FAA2F2B2FACF
:1008400082F293400B43036033E0E368FBB1012283
:10085000794B1A60FFF70CFE054605E0FFF708FE2E
:10086000401B022800F21981714B1B6813F0020F24
:10087000F4D06F48036823F0F8012369F82292FA54
:10088000A2F2B2FA82F293400B43036011E000221D
:10089000694B1A60FFF7ECFD054605E0FFF7E8FD40
:1008A000401B022800F2FB80614B1B6813F0020F13
:1008B000F4D1236813F0080F26D0636993B10122A5
:1008C0005E4B1A60FFF7D4FD054605E0FFF7D0FD4B
:1008D000401B022800F2E580554B5B6F13F0020FBE
:1008E000F4D011E00022554B1A60FFF7C1FD054618
:1008F00005E0FFF7BDFD401B022800F2D4804C4B01
:100900005B6F13F0020FF4D1236813F0040F47D08C
:1009100000230193464B1A6C42F080521A641B6C00
:1009200003F080530193019B454A136843F480739D
:100930001360FFF79DFD054605E0FFF799FD401B9D
:10094000022800F2B2803E4B1B6813F4807FF4D083
:10095000227A3C4B1A70A3688BB1FFF789FD0546DC
:1009600007E0FFF785FD401B41F28833984200F213
:100970009E802F4B1B6F13F0020FF2D010E0FFF799
:1009800077FD054607E0FFF773FD401B41F2883312
:10099000984200F28E80264B1B6F13F0020FF2D1AB
:1009A000A369002B00F08780214A926802F00C02B4
:1009B000082A00F08280022B54D10022224B1A60B8
:1009C000FFF756FD054604E0FFF752FD401B0228E5
:1009D00075D8174B1B6813F0007FF5D1E169236AC6
:1009E0001943636A47F6C07292FAA2F2B2FA82F22F
:1009F00093401943A36A5B085A1E4FF4403393FA9D
:100A0000A3F3B3FA83F302FA03F30B43E26A4FF062
:100A1000706191FAA1F1B1FA81F18A401343044A5D
:100A200053600122084B1A60FFF722FD044612E0D2
:100A3000003802400238024000004742800E474220
:100A4000007000407038024060004742FFF710FD20
:100A5000001B022835D81D4B1B6813F0007FF5D012
:100A6000002031E000221A4B1A60FFF701FD044616
:100A700004E0FFF7FDFC001B022824D8134B1B6881
:100A800013F0007FF5D100201EE001201CE00320C0
:100A90001AE0032018E0012016E0032014E00320F0
:100AA00012E0032010E003200EE003200CE00320FE
:100AB0000AE0032008E0002006E0012004E0032013
:100AC00002E0032000E0032003B030BD0038024004
:100AD00060004742244B9B6803F00C03042B3FD07B
:100AE000082B01D02148704710B41F4B586800F004
:100AF0003F005B6813F4800F10D01D4BB3FBF0F088
:100B0000194B5A6847F6C0710A4091FAA1F3B3FA3B
:100B100083F322FA03F303FB00F310E0134BB3FB60
:100B2000F0F0114B5A6847F6C07402EA040194FAD7
:100B3000A4F2B2FA82F221FA02F202FB00F30A4AAC
:100B4000506800F440324FF4403090FAA0F0B0FA10
:100B500080F022FA00F001304000B3FBF0F001E039
:100B60000348704710BC7047003802400024F4006E
:100B700000127A0070B5674B1B6803F00F038B42BD
:100B800008D2CBB2634A1370136803F00F03994283
:100B900040F0AE80036813F0020F06D05E4CA368ED
:100BA00023F0F00283681343A3600D4604460368F4
:100BB00013F0010F60D04268012A05D1564B1B6823
:100BC00013F4003F0FD195E0931E012B05D8524B33
:100BD0001B6813F0007F06D18EE04F4B1B6813F0AB
:100BE000020F00F08B804C498B6823F00303134302
:100BF0008B60FFF73DFC06466368012B0ED106E0D3
:100C0000FFF736FC801B41F28833984278D8424B7C
:100C10009B6803F00C03042BF2D12DE0022B0ED1C4
:100C200006E0FFF725FC801B41F28833984269D823
:100C3000394B9B6803F00C03082BF2D11CE0032B0B
:100C400015D106E0FFF714FC801B41F2883398426F
:100C50005AD8314B9B6803F00C030C2BF2D10BE0FC
:100C6000FFF706FC801B41F2883398424ED82A4B8E
:100C70009B6813F00C0FF3D1264B1B6803F00F0396
:100C80009D4207D2EAB2234B1A701B6803F00F0390
:100C90009D423DD1236813F0040F06D01E498B6896
:100CA00023F4E052E36813438B60236813F0080FCA
:100CB00007D0194A936823F46043216943EAC103CA
:100CC0009360FFF707FF144B9B6803F0F002F023DB
:100CD00093FAA3F3B3FA83F322FA03F30F4AD35C34
:100CE000D8400F4B18600020FFF78AFB002070BD32
:100CF000012070BD012070BD012070BD012070BDBC
:100D0000032070BD032070BD032070BD032070BDA3
:100D1000012070BD003C0240003802402C27000832
:100D20000C000020014B1868704700BF0C00002029
:100D300008B5FFF7F7FF084B9B6803F4E0524FF448
:100D4000E05393FAA3F3B3FA83F322FA03F3034ACB
:100D5000D35CD84008BD00BF003802402C270008F3
:100D600008B5FFF7DFFF084B9B6803F460424FF4C0
:100D7000604393FAA3F3B3FA83F322FA03F3034A2B
:100D8000D35CD84008BD00BF003802402C270008C3
:100D90000268D36823F49073D3600268536923F028
:100DA00001035361202380F83A30704790F83930BE
:100DB000DBB2212B2BD18368B3F5805F0FD1036A9F
:100DC00002681B88C3F30803536003691BB9036AF5
:100DD0000233036209E0036A0133036205E002683B
:100DE000036A591C01621B785360C38C9BB2013BA0
:100DF0009BB2C3846BB90268D36823F08003D360CD
:100E00000268D36843F04003D3600020704702209B
:100E100070470020704700BF2DE9F8430446016881
:100E20000B6923F44052C36813430B610068C36825
:100E300023F4164222F00C02A16823691943636966
:100E40001943E3690B431343C36021684B6923F4DF
:100E50004072A36913434B61E369B3F5004F40F05F
:100E6000BB80276803F1804303F510439F4203D002
:100E700003F580639F4257D1FFF772FF00EB8000BC
:100E800000EB800065686D00B0FBF5F5AB4EA6FB8E
:100E900005356D092D01FFF763FF00EB800000EBC6
:100EA000800063685B00B0FBF3F9FFF759FF00EBCC
:100EB000800000EB800063685B00B0FBF3F3A6FBEF
:100EC00003235B094FF0640808FB1393DB00323304
:100ED000A6FB03235B095B0003F4F8731D44FFF7D3
:100EE0003FFF00EB800000EB800063685B00B0FB1D
:100EF000F3F9FFF735FF00EB800000EB800063683B
:100F00005B00B0FBF3F3A6FB03235B0908FB13981C
:100F10004FEAC80808F13208A6FB0836C6F34216A5
:100F20003544BD60BDE8F883FFF702FF00EB8000A9
:100F300000EB800065686D00B0FBF5F57F4EA6FB09
:100F400005356D092D01FFF7F3FE00EB800000EB86
:100F5000800063685B00B0FBF3F9FFF7E9FE00EB8C
:100F6000800000EB800063685B00B0FBF3F3A6FB3E
:100F700003235B094FF0640808FB1393DB00323353
:100F8000A6FB03235B095B0003F4F8731D44FFF722
:100F9000CFFE00EB800000EB800063685B00B0FBDD
:100FA000F3F9FFF7C5FE00EB800000EB80006368FB
:100FB0005B00B0FBF3F3A6FB03235B0908FB13986C
:100FC0004FEAC80808F13208A6FB0836C6F34216F5
:100FD0003544BD60BDE8F8832668594B9E4203D076
:100FE00003F580639E4254D1FFF7BAFE00EB800008
:100FF00000EB80006568AD00B0FBF5F54F4FA7FB37
:1010000005356D092D01FFF7ABFE00EB800000EB0D
:10101000800063689B00B0FBF3F8FFF7A1FE00EBD4
:10102000800000EB800063689B00B0FBF3F3A7FB3C
:1010300003235B094FF0640909FB13831B0132335F
:10104000A7FB03235B0903F0F0031D44FFF788FEB1
:1010500000EB800000EB800063689B00B0FBF3F8BE
:10106000FFF77EFE00EB800000EB800063689B00D2
:10107000B0FBF3F3A7FB03235B0909FB13831B01FD
:101080003233A7FB0323C3F343131D44B560BDE80C
:10109000F883FFF74DFE00EB800000EB80006568F1
:1010A000AD00B0FBF5F5254FA7FB05356D092D010A
:1010B000FFF73EFE00EB800000EB800063689B00C2
:1010C000B0FBF3F8FFF734FE00EB800000EB80008C
:1010D00063689B00B0FBF3F3A7FB03235B094FF0AE
:1010E000640909FB13831B013233A7FB03235B094C
:1010F00003F0F0031D44FFF71BFE00EB800000EB44
:10110000800063689B00B0FBF3F8FFF711FE00EB73
:10111000800000EB800063689B00B0FBF3F3A7FB4B
:1011200003235B0909FB13831B013233A7FB032352
:10113000C3F343131D44B560BDE8F8831F85EB512D
:10114000001001402DE9F04105460F46164698462D
:10115000069C1EE0B4F1FF3F1BD02CB1FFF788F9CD
:10116000C8EB0000844214D22A68D36823F4D073F9
:10117000D3602A68536923F001035361202385F863
:10118000393085F83A30002385F838300320BDE83F
:10119000F0812B681B6837EA03030CBF012300238F
:1011A000B342D7D00020BDE8F08100BF68B310B5CE
:1011B000044690F8393013F0FF0F04D1002380F873
:1011C000383000F0F9FC242384F839302268D368E1
:1011D00023F40053D3602046FFF71EFE22681369F4
:1011E00023F4904313612268536923F02A03536167
:1011F0002268D36843F40053D3600020E0632023C7
:1012000084F8393084F83A3010BD0120704700BFAF
:101210002DE9F04182B01E4690F83930DBB2202B28
:1012200056D104460D469046002953D0002A53D08B
:1012300090F83830012B51D0012380F8383000234A
:10124000C363212380F83930FFF712F90746A4F869
:101250002480A4F8268027E0E38C9BB2013B9BB25C
:10126000E384A368B3F5805F12D100963B46002269
:1012700080212046FFF766FF90BB22682B88C3F3CE
:101280000803536023690BB902350DE001350BE00B
:1012900000963B46002280212046FFF753FF08BB03
:1012A00023682A785A600135E38C9BB2002BD3D196
:1012B00000963B46002240212046FFF743FF0346AD
:1012C00090B9202284F83920002284F838200CE0DC
:1012D00002230AE0012308E0012306E0022304E0E0
:1012E000032302E0032300E00323184602B0BDE815
:1012F000F08100BF90F83930DBB2202B16D1B9B1A4
:10130000C2B190F83830012B16D001628284C284B9
:101310000023C363212280F8392080F83830016827
:10132000CA6842F08002CA601846704702207047BF
:1013300001207047012070470220704790F83A3032
:10134000DBB2202B1BD1E1B1EAB190F83830012B90
:101350001BD081628285C2850023C363222280F86C
:101360003A2080F8383001684A6942F001024A6147
:101370000168CA6842F49072CA6018467047022039
:10138000704701207047012070470220704700BF5E
:10139000704700BF08B50168CB6823F04003CB60FD
:1013A000202380F83930FFF7F3FF002008BD00BF8D
:1013B00008B590F83A30DBB2222B3FD18368B3F501
:1013C000805F13D1826A036943B903685B68C3F322
:1013D00008031380836A0233836218E003685B6842
:1013E000DBB21380836A0133836210E0036933B98F
:1013F000836A5A1C8262026852681A7007E0826A25
:10140000531C836203685B6803F07F031370C38D12
:101410009BB2013B9BB2C38593B90268D36823F4A6
:101420009073D3600268536923F001035361202352
:1014300080F83A3000F0A0FA002008BD022008BD74
:10144000002008BD704700BF10B50446026813684D
:10145000D168526913F00F0009D113F0200F06D0A4
:1014600011F0200F03D02046FFF7A2FF10BD002887
:1014700062D012F0010202D111F4907F5CD013F01F
:10148000010F06D011F4807F03D0E06B40F0010023
:10149000E06313F0040F04D01AB1E06B40F00200D7
:1014A000E06313F0020F04D01AB1E06B40F00400C7
:1014B000E06313F0080F04D01AB1E26B42F00802A7
:1014C000E263E26B002A4AD013F0200F05D011F03E
:1014D000200F02D02046FFF76BFF23685B6903F003
:1014E0004003E26B12F0080F00D1FBB12046FFF77A
:1014F0004FFC23685A6912F0400F13D05A6922F04A
:1015000040025A61636B4BB1154A1A65606BFFF775
:101510003FF820B3606B036D984710BD2046FFF77E
:1015200091FF10BD2046FFF78DFF10BD2046FFF74D
:1015300089FF0023E36310BD13F0800F06D011F084
:10154000800F03D02046FFF731FC10BD13F0400F91
:1015500005D011F0400F02D02046FFF71BFF10BD51
:101560006515000808B5806B0023C385C384FFF7A9
:1015700069FF08BD90F8393090F83A001843704779
:10158000FEE700BF08B50D4B1B6813B90C4A0B4BA7
:101590001A600A4B1A68C31C23F003031344094959
:1015A0008B4206D900F042FB0C2303604FF0FF3062
:1015B00008BD02490B60104608BD00BFEC010020C9
:1015C000CC020020007C012001230360014B0B6052
:1015D000704700BF040000200FB400B583B004AB17
:1015E00053F8042B01938021064800F027FC0028C3
:1015F00003DD0146034800F039F803B05DF804EB61
:1016000004B07047F40100202DE9F04385B0044692
:101610000F46435613BB042528462146ABBE04465D
:101620001FE03546102E28BF1025002306E014F9D0
:10163000011B04AA1A4402F8101C0133AB42F6D372
:1016400004AA1344002203F8102CE9464FF00408C2
:1016500040464946ABBE8046761B00E00E46002E53
:10166000DFD1384605B0BDE8F08300BF08B5FFF70D
:10167000CBFF08BD08B500F097F8024B024A9A600C
:1016800008BD00BF00ED00E00000000808B500F054
:10169000ABF808BDF8B504460D4617461E46264869
:1016A000FFF79AFF21682548FFF796FF61682448F5
:1016B000FFF792FFA1682348FFF78EFFE1682248F9
:1016C000FFF78AFF21692148FFF786FF61692048FB
:1016D000FFF782FFA1691F48FFF77EFFE1691E48FF
:1016E000FFF77AFF1D48FFF777FF29461C48FFF7F1
:1016F00073FF1C4CE16A1C48FFF76EFF216B1B480F
:10170000FFF76AFFE16B1A48FFF766FF15F0800FDD
:1017100003D039461748FFF75FFF15F4004F03D099
:1017200031461548FFF758FF1448FFF755FF069953
:101730001348FFF751FFF8BD3C2700084C2700086D
:101740005C2700086C2700087C2700088C2700080D
:101750009C270008AC270008BC270008CC270008FD
:10176000D827000800ED00E0E8270008F827000867
:101770000828000818280008282800083828000829
:101780004028000883691A888A4207D10268033A10
:10179000012A05D802338361012070470020704779
:1017A00000207047FEE700000C4B1A6842F001026F
:1017B0001A60002199601A6822F0847222F4803243
:1017C0001A60074A5A601A6822F480221A60D960A7
:1017D0004FF00062034B9A60704700BF0038024030
:1017E0001030002400ED00E0224B9B6803F00C0356
:1017F000042B07D0082B09D0002B2DD11E4A1F4BDC
:101800001A602CE01E4A1D4B1A6028E0194B5A68DA
:101810005B6803F03F0312F4800F09D0184AB2FB53
:10182000F3F2144B5B68C3F3881303FB02F208E086
:10183000114AB2FBF3F30F4A5168C1F3881101FB5F
:1018400003F20C4B5B68C3F3014301335B00B2FB53
:10185000F3F30A4A136002E0074A084B1A60054B8B
:101860009B68C3F30313074AD15C044A1368CB4057
:1018700013607047003802400024F4000C00002080
:1018800040787D01842800080B4B1B78DBB2012BCC
:101890000ED110B50022084B1A70084C01222146C7
:1018A0000748FFF74BFD204600F0BCF940B210BDE1
:1018B0004FF0FF30704700BF10000020C40200202E
:1018C00084020020431EDBB2022B40D810B588B042
:1018D000044602462049684600F0BAF9684600F01E
:1018E000DBF94FF0FF3382B269461C48FFF790FCEA
:1018F000022C08D0032C2CD0012C1BD120211848FD
:10190000FEF730FF16E04FF400511648FEF722FFB5
:1019100008B9154A00E0154A1549684600F098F9DB
:10192000684600F0B9F94FF0FF3382B269460B48C0
:10193000FFF76EFC0F4C204600F0AEF94FF0FF337E
:1019400082B221460548FFF763FC012002E0002037
:101950007047022008B010BDBC2800088402002097
:101960000000024000080240A8280008B028000833
:10197000C0280008DC2800080122014B1A707047BB
:101980001000002008B56420FEF778FD08BD00BFF8
:1019900030B587B001AC124D0FCD0FC42B6823605A
:1019A000002418E006AB03EB840353F8145C2846CC
:1019B00000F072F982B229460A48FFF79BFC0948F9
:1019C000FFF7D8FD2128FAD00648FFF7D3FD2328DA
:1019D000F5D00134E4B2042CE4D907B030BD00BF27
:1019E000942800088402002070B594B0002401946B
:1019F000244B1A6C42F080521A641B6C03F0805323
:101A00000193019B0294204A136823F4404343F45A
:101A100000431360136803F440430293029B0225C2
:101A2000089501230B9310230C930E950F9410939C
:101A30004FF4A8731193042612960723139308A852
:101A4000FEF794FE05230393049505944FF4805309
:101A500006930794294603A8FFF78CF8FFF762F96D
:101A60000A4BA3FB00308009FEF766FD3046FEF707
:101A700079FD224621464FF0FF30FEF71FFD14B0DE
:101A800070BD00BF0038024000700040D34D6210AE
:101A900008B50848084B03604FF416434360002321
:101AA0008360C36003610C2242618361C361FFF7FD
:101AB0007DFB08BD840200200044004030B58BB09F
:101AC00000240194224B1A6B42F004021A631A6B31
:101AD00002F004020192019A02941A6B42F0080289
:101AE0001A631A6B02F008020292029A03941A6BAC
:101AF00042F001021A631A6B02F001020392039A88
:101B000004941A6B42F002021A631B6B03F0020387
:101B10000493049B4FF4005305930E4B06930794D4
:101B200005A90D48FEF748FD2023059301250695DC
:101B30000794089405A90948FEF73EFD2246294668
:101B40002820FEF7BBFC2820FEF7EAFC0BB030BDD6
:101B5000003802400000111000080240000002405E
:101B600010B5FEF763FCFFF73FFFFFF7A7FFFFF796
:101B70008FFF002211462620FEF7A0FC2620FEF74C
:101B8000CFFCFFF705FFFFF77FFE10F0FF0403D047
:101B9000FFF798FE032CF4D0FFF7F4FEF3E700BF45
:101BA00008B50720FEF778FC002211464FF0FF3001
:101BB000FEF784FC08BD00BF0268104B9A421CD19E
:101BC00000B587B0002300930D4A116C41F4003139
:101BD0001164126C02F400320092009A0C220192FD
:101BE00002220292039304930723059301A9054857
:101BF000FEF7E2FC07B05DF804FB704700440040CC
:101C0000003802400000024008B5FEF729FCFEF74C
:101C1000BBFC08BD08B50248FFF716FC08BD00BFB5
:101C2000840200200A22002100F0C6B8014B186887
:101C3000704700BF7400002010B5431E0A44914253
:101C400004D011F8014B03F8014FF8E710BD000074
:101C50000EB400B59CB04FF402711DABADF814107A
:101C6000029006906FF000410A48049107914FF6E8
:101C7000FF7153F8042BADF816100068019302A908
:101C800000F006FA029B00221A701CB05DF804EB0B
:101C900003B0704774000020034613F8012B002A9C
:101CA000FBD1181A013870472DE9F0478046894664
:101CB00092461E460F463D46089815F8014B00F027
:101CC000CBF82044427802F0080202F0FF030AB188
:101CD0002F46F0E72D2C03D1BD1C7C78012303E0B7
:101CE0002B2C04BF7C78BD1C16B1102E0AD15EE0EF
:101CF000302C5AD12A7802F0DF02582A50D16C7861
:101D000010260235002B14BF4FF000426FF0004246
:101D1000B2FBF6FE06FB1E2100221046A4F130079E
:101D2000092F01D83C460AE0A4F14107192F01D838
:101D3000373C04E0A4F16107192F13D8573CA642A1
:101D400010DD571C0BD0864507D301D1A14203DB20
:101D500000FB0640012202E070464FF0FF3215F80A
:101D6000014BDBE7511C0ED1002B4FF0220314BFB7
:101D70004FF000406FF00040C8F80030BAF1000F9B
:101D800007D1BDE8F08703B14042BAF1000F11D08E
:101D90000AB1013D00E04D46CAF80050BDE8F087A9
:101DA0003024002EAED10826ACE70A26AAE7302C54
:101DB000A0D0A7E7BDE8F087084B37B51C68084DF1
:101DC000236A002B08BF2B46009313460A460146A0
:101DD0002046FFF769FF03B030BD00BF740000204C
:101DE0007800002030B5141E05469BB0184604DA72
:101DF0008B232B604FF0FF301DE04FF40273ADF8E2
:101E00000C3014BF04F1FF332346029305934FF6C1
:101E1000FF7300910491ADF80E3002461E9B694697
:101E2000284600F035F9431CBCBF8B232B6014B14E
:101E3000009B00221A701BB030BD000007B5009354
:101E400013460A46014603480068FFF7CBFF03B07C
:101E50005DF804FB74000020D0F8EC00704782B0FD
:101E600001B901A93AB143B113780B601278101C83
:101E700018BF012003E0104601E06FF0010002B03E
:101E80007047000038B50546002946D051F8043C9B
:101E90000C1F002BB8BFE41800F015FC1F4A136894
:101EA000114613B96360146032E0A3420ED9226870
:101EB000A018834204BF18685B68636004BF1218EF
:101EC00022600C6024E0A24203D813465A68002A1C
:101ED000F9D118681918A1420BD12168014458188A
:101EE0008242196014D1106852685A600144196026
:101EF0000EE002D90C232B600AE0216860188242B0
:101F000004BF10685268626004BF091821605C60F9
:101F10002846BDE8384000F0D7BB38BD7802002025
:101F200070B5CD1C25F0030508350C2D38BF0C25E8
:101F3000002D064601DBA94202D90C23336046E09E
:101F400000F0C1FB234B1C681A462146A1B10B6867
:101F50005B1B0ED40B2B03D90B60CC18CD501EE0AD
:101F60008C420DBF63684B686360136018BF0C46FA
:101F700015E00C464968E9E7174C23681BB9304661
:101F800000F016FB20602946304600F011FB431C90
:101F900018D0C41C24F00304A0420DD125603046A3
:101FA00000F092FB04F10B00231D20F00700C31A80
:101FB0000ED05A42E25070BD211A304600F0F8FAB5
:101FC0000130EBD10C233360304600F07DFB002064
:101FD00070BD00BF78020020740200202DE9F04798
:101FE0008E689E4282460C46914698463ED88A8923
:101FF00012F4906F3AD0256809696F1A6569022357
:1020000005EB450595FBF3F57B1C43449D4238BF2A
:102010001D4653050FD52946FFF782FF064698B1A6
:102020003A462169FFF708FEA38923F4906343F041
:102030008003A38113E02A4600F047FB064670B9EF
:1020400021695046FFF71EFF0C23CAF80030A38910
:1020500043F04003A3814FF0FF30BDE8F0872661D5
:1020600065613E44ED1B2660A5604646464528BF97
:10207000464632464946206800F00AFBA3689B1B8F
:10208000A36023681E4426600020BDE8F08700009E
:102090002DE9F04F9DB0804603938B891C060D46B9
:1020A00016460DD50B695BB94021FFF739FF286053
:1020B000286118B90C23C8F80030CDE040236B61CB
:1020C0000023099320238DF82930DFF89CB13023B9
:1020D0008DF82A3037463C4614F8013B1BB9B7EB64
:1020E000060910D003E0252BF9D02746F3E74B462D
:1020F000324629464046FFF771FF013000F0A780C5
:10210000099B4B4409933B78002B00F0A0800023EF
:102110004FF0FF3204930793059206938DF85330E6
:102120001A930126052221784E4800F061FA671CB7
:10213000049B38B14B4A801A06FA00F01843049009
:102140003C46EFE7D90644BF20228DF853201A07FA
:1021500044BF2B228DF8532022782A2A03D0079AD5
:1021600000210A200BE0039A111D12680391002A36
:1021700010DA524243F00200079204900BE0274627
:1021800001343B78303B092B03D800FB023201219C
:10219000F5E701B107923B782E2B1ED17B782A2BD5
:1021A0000AD1039B1A1D1B680392002BB8BF4FF086
:1021B000FF330237059310E000230593781C19467E
:1021C0000A24074601303A78303A092A03D804FB3A
:1021D00001210123F5E703B1059103223978224853
:1021E00000F006FA40B14023CBEB000003FA00F008
:1021F000049B18430490013739781C488DF8281047
:1022000006227E1C00F0F4F988B1194B33B9039B08
:10221000073323F007030833039314E003AB009361
:102220002A46144B04A94046AFF3008007E003ABF5
:1022300000932A460F4B04A9404600F093F8B0F1F2
:10224000FF3F824603D0099B5344099342E7AB8981
:102250005B0601D4099801E04FF0FF301DB0BDE8E6
:10226000F08F00BF0E2A0008142A0008182A000860
:1022700000000000DD1F00082DE9F04791461F46D1
:102280000A698B68DDF820809342B8BF1346C9F80D
:10229000003091F8432006460C4612B10133C9F8CC
:1022A00000302368990642BFD9F800300233C9F8DC
:1022B0000030256815F0060510D104F1190A07E071
:1022C0000123524639463046C04701301AD0013505
:1022D000E368D9F800209B1A9D42F1DB94F8433063
:1022E0002268003318BF012392060FD5E1185A1C4B
:1022F000302081F84300224494F8451082F84310BE
:10230000023303E04FF0FF30BDE8F08704F14302F1
:1023100039463046C0470130F4D02268D9F8005021
:10232000E36802F00602042A08BF5D1B2269A36865
:102330000CBF25EAE57500259342C4BF9B1AED1832
:102340004FF000091A344D4509D001232246394681
:102350003046C0470130D5D009F10109F3E700202C
:10236000BDE8F0872DE9F04317460A7E85B06E2A56
:10237000984606460C460C9B01F1430E00F0AE80D9
:1023800011D8632A22D009D8002A00F0BB80582A2D
:1023900040F0CA8081F84520834955E0642A1ED068
:1023A000692A1CD0C0E0732A00F0B08009D86F2AD7
:1023B0002ED0702A40F0B8800A6842F020020A60ED
:1023C0003EE0752A24D0782A3AD0ADE01A6801F1AF
:1023D0004205111D1960136884F84230A8E0216895
:1023E0001A6811F0800F02D0111D196008E011F079
:1023F000400F02F10401196002D0B2F9003000E090
:102400001368002B3CDA2D225B4284F8432037E02E
:1024100021681A6811F0800F02D0111D196007E0C1
:1024200011F0400F02F10401196001D0138800E09F
:102430001368227E5C496F2A14BF0A2208221BE01F
:1024400078225A4984F845202268186812F0800FD3
:1024500000F104051D6003D1550601D5038800E095
:102460000368D00744BF42F0200222601BB92268F3
:1024700022F0200222601022002084F8430001E0B4
:1024800049490A226568A560002D08DB206820F014
:10249000040020602BB9002D7DD175460CE0002B87
:1024A00079D07546B3FBF2F002FB1033CB5C05F834
:1024B000013D03460028F5D1082A0BD12368DA072D
:1024C00008D5236962689A42DEBF302305F8013CD3
:1024D00005F1FF35C5EB0E0323612EE008681A688D
:1024E000496910F0800F03D0101D1860136808E0D0
:1024F00010F0400F02F104001860136801D0198039
:1025000000E0196000232361754616E01A68111D6A
:102510001960156862680021284600F069F808B162
:10252000401B6060636804E004F1420584F84220C7
:1025300001232361002384F84330CDF800803B461B
:1025400003AA21463046FFF797FE013002D14FF033
:10255000FF3026E023692A4639463046C04701301D
:10256000F5D023689B0710D5002504F1190907E071
:1025700001234A4639463046C0470130E7D001358D
:10258000E368039A9B1A9D42F2DBE068039B984242
:10259000B8BF184605E00B7884F8423004F14205D4
:1025A0008AE705B0BDE8F0831F2A0008302A00083A
:1025B00038B5064C0023054608462360FEF7E2FFC7
:1025C000431C02D1236803B12B6038BD8002002078
:1025D00049B1FF2A85BF8A2303600A704FF0FF309C
:1025E00098BF0120704708467047000000000000B7
:1025F00001F0FF01102A2BDB10F0070F08D010F8B4
:10260000013B013A8B422DD010F0070F42B3F6D1B7
:10261000F0B441EA012141EA014122F007047FF0D0
:1026200000070023F0E80256083C85EA010586EA27
:10263000010685FA47F5A3FA87F586FA47F6A5FA63
:1026400087F68EB9EED1F0BC01F0FF0102F007026F
:1026500032B110F8013B013A83EA010313B1F8D11A
:102660000020704701387047002D06BF35460338FB
:10267000073815F0010F07D1013015F4807F02BF34
:10268000013015F4C03F0130F0BC0138704700BF85
:10269000884210B501EB020301D8421E0BE09842BC
:1026A000FBD28118D21AD34204D013F8014D01F89D
:1026B000014DF8E710BD994204D011F8014B02F822
:1026C000014FF8E710BD70477047F8B5074615464B
:1026D0000E4621B91146BDE8F840FFF721BC1AB9F2
:1026E000FFF7D0FB2846F8BD00F015F885420ED95B
:1026F00029463846FFF714FC044650B131462A46B5
:10270000FFF79AFA31463846FFF7BCFB01E0304646
:10271000F8BD2046F8BD51F8040C0028BEBF0918CA
:1027200051F8043CC0180438704700000000000055
:1027300001020304010203040607080953746163DC
:102740006B206672616D653A0A00000020523020ED
:102750003D2020253038580A00000000205231204A
:102760003D2020253038580A000000002052322039
:102770003D2020253038580A000000002052332028
:102780003D2020253038580A000000002052313208
:10279000203D20253038580A00000000204C5220EF
:1027A0003D2020253038580A0000000020504320EA
:1027B0003D2020253038580A000000002050535298
:1027C000203D20253038580A000000004653522F83
:1027D0004641523A0A0000002043465352203D2011
:1027E00020253038580A00002048465352203D200A
:1027F00020253038580A00002044465352203D20FE
:1028000020253038580A00002041465352203D20F0
:1028100020253038580A0000204D4D464152203DB9
:1028200020253038580A00002042464152203D20E1
:1028300020253038580A00004D6973630A000000F3
:10284000204C522F4558435F52455455524E3D201F
:10285000253038580A0000005B4861726446617593
:102860006C745D0A000000005B4275734661756C14
:10287000745D0A005B55736167654661756C745DD4
:102880000A00000000000000000000000102030434
:1028900006070809E4280008EC280008F4280008C6
:1028A00020290008DC2800085052455353454400B5
:1028B00052454C454153454400000000256400004A
:1028C0000D0A5553455220425554544F4E207374AF
:1028D000617475733A202573000000000D0A3E20D4
:1028E000000000001B5B303B304800001B5B324A9D
:1028F0000000000057656C636F6D6520746F207475
:102900006865204E75636C656F206D616E616765EB
:102910006D656E7420636F6E736F6C650D0A0000D9
:1029200053656C65637420746865206F7074696F9B
:102930006E20796F752061726520696E74657265AD
:102940007374656420696E3A0D0A09312E20546F44
:1029500067676C65204C4432204C45440D0A0932AF
:102960002E205265616420555345522042555454DF
:102970004F4E207374617475730D0A09332E204312
:102980006C6561722073637265656E20616E642090
:102990007072696E742074686973206D65737361F9
:1029A000676520000000000000000000000000003B
:1029B0000000000000000000000000000000000017
:1029C0000000000000000000000000000000000007
:1029D00000000000000000000000000000000000F7
:1029E00000000000000000000000000000000000E7
:1029F00000000000000000000000000000000000D7
:102A0000000000004300504F534958002E00232D72
:102A1000302B2000686C4C006566674546470030E7
:102A20003132333435363738394142434445460034
:102A30003031323334353637383961626364656634
:102A4000000020202020202020202028282828289E
:102A50002020202020202020202020202020202076
:102A600020208810101010101010101010101010CE
:102A700010100404040404040404040410101010CE
:102A80001010104141414141410101010101010189
:102A900001010101010101010101010101101010F9
:102AA000101010424242424242020202020202025C
:102AB00002020202020202020202020202101010CC
:102AC00010200000000000000000000000000000D6
:102AD00000000000000000000000000000000000F6
:102AE00000000000000000000000000000000000E6
:102AF00000000000000000000000000000000000D6
:102B000000000000000000000000000000000000C5
:102B100000000000000000000000000000000000B5
:102B200000000000000000000000000000000000A5
:102B30000000000000000000000000000000000095
:022B4000000093
:102B440078563412F0010020000000000024F40044
:102B540001FFFFFF00000000A4290008C4290008A9
:102B6400E42900080000000000000000000000004C
:102B74000000000000000000000000000000000051
:102B84000000000000000000000000000000000041
:102B94000000000000000000000000000000000031
:102BA4000000000000000000000000000000000021
:102BB400000000001400002043000000000000009A
:102BC4000000000000000000000000000000000001
:102BD40000000000000000004300000000000000AE
:102BE40000000000000000000000000000000000E1
:102BF400000000000000000043000000000000008E
:102C040000000000000000000000000000000000C0
:102C1400000000000000000043000000000000006D
:102C240000000000000000000000000000000000A0
:102C3400000000000000000043000000000000004D
:102C44000000000000000000000000000000000080
:102C5400000000000000000043000000000000002D
:102C64000000000000000000000000000000000060
:102C7400000000000000000043000000000000000D
:102C84000000000000000000000000000000000040
:102C94000000000000000000D12500085F1E0008AD
:102CA40000000000412A00080C2A0008132A00082A
:102CB400132A0008132A0008132A0008132A0008FC
:102CC400132A0008132A0008132A0008132A0008EC
:102CD400FFFFFFFFFFFFFFFFFFFFFFFFFFFF0000FE
:102CE4000100415343494900000000000000000076
:102CF40000000000000000000000000000000000D0
:102D04000000415343494900000000000000000056
:102D140000000000000000000000000000000000AF
:082D2400000000003254769813
:040000050800019559
:00000001FF
