:020000040800F2
:1000000000800120A9020008B1020008B502000822
:10001000FD02000801030008490300080000000079
:100020000000000000000000000000009103000834
:100030009503000800000000990300080111000862
:10004000E50E0008E50E0008E50E0008E50E0008C4
:10005000E50E0008E50E0008E50E0008E50E0008B4
:10006000E50E0008E50E0008E50E0008E50E0008A4
:10007000E50E0008E50E0008E50E0008E50E000894
:10008000E50E0008E50E0008E50E0008000000007F
:10009000000000000000000000000000E50E000865
:1000A000E50E0008E50E0008E50E0008E50E000864
:1000B000E50E0008E50E0008E50E0008E50E000854
:1000C000E50E0008E50E0008E50E0008E50E000844
:1000D000E50E0008E50E0008E50E0008000000002F
:1000E000E50E0008E50E0008E50E0008000000001F
:1000F000000000000000000000000000E50E000805
:1001000000000000E50E0008E50E0008E50E0008FE
:1001100000000000000000000000000000000000DF
:10012000E50E0008E50E0008E50E0008E50E0008E3
:10013000E50E0008000000000000000000000000C4
:10014000000000000000000000000000E50E0008B4
:10015000E50E0008E50E0008E50E0008E50E0008B3
:10016000E50E0008E50E0008000000000000000099
:10017000000000000000000000000000000000007F
:1001800000000000E50E0008000000000000000074
:10019000E50E000800B583B000F01CFE304B314A7C
:1001A0001360314A1360314B314A03E01168196022
:1001B000043304322F498B42F8D32A4B1A682E4B52
:1001C0009A4204D1284B1A682C4B9A4200D0FEE781
:1001D000234B2B4A13602B4A13602B4B02E0002267
:1001E0001A600433294A9342F9D3254B1B6813B98B
:1001F000244B1B6803B1FEE700F0F8FD694601A837
:1002000000F0C4FD224C234B1C1BA410002504E06D
:100210001F4B53F8253098470135AC42F8DC1E4C93
:100220001E4B1C1BA410002504E01B4B53F825306B
:1002300098470135AC42F8DC0099019800F014FFB2
:100240000546174C174B1C1BA41004E0013C144B33
:1002500053F824309847002CF8DC284600F072FD53
:10026000BABADECA0000002074000020000000209E
:10027000B01C00087800002078563412325476986A
:1002800078000020140100207800002018010020D0
:10029000D4030008D4030008D4030008D4030008E2
:1002A000D4030008D403000808B5FFF773FF00BFAC
:1002B00000BEFEE71EF0040F0CBFEFF30880EFF363
:1002C00009807146364A10472DE9F04182B0044654
:1002D0008846084B5E6B9F6B9D6A074800F05EFD89
:1002E000CDF800803B4632462946204600F082FD8C
:1002F00000BEFEE700ED00E0301C000800BEFEE797
:100300001EF0040F0CBFEFF30880EFF30980714675
:10031000244A10472DE9F04182B004468846084B34
:100320005E6B9F6B9D6A074800F038FDCDF800803A
:100330003B4632462946204600F05CFD00BEFEE703
:1003400000ED00E0401C00081EF0040F0CBFEFF3AE
:100350000880EFF309807146134A10472DE9F041F8
:1003600082B004468846084B5E6B9F6B9D6A0748C7
:1003700000F014FDCDF800803B4632462946204669
:1003800000F038FD00BEFEE700ED00E04C1C000868
:1003900000BEFEE700BEFEE700BEFEE770470000BD
:0C03A000C9020008150300085D030008F6
:1003AC00B01C00080000002078000020B01C0008E1
:1003BC000000001000000010780000201801002040
:0803CC00000000100000001009
:1003E00010B50446074B1B680748A0FB0330800983
:1003F00000F08AF8002221464FF0FF3000F052F85A
:10040000002010BD0C000020D34D621008B50B4B2E
:100410001A6842F400721A601A6842F480621A6024
:100420001A6842F480721A60032000F029F8002054
:10043000FFF7D6FF00F034FE002008BD003C02406C
:10044000024A136801331360704700BF0C0100209B
:10045000014B1868704700BF0C01002030B583B015
:100460000190FFF7F5FF0546019CB4F1FF3F00D076
:100470000134FFF7EDFF401BA042FAD303B030BDBB
:10048000074AD36823F4E0631B041B0C000200F44A
:10049000E060184340F0BF6040F40030D060704727
:1004A00000ED00E030B4164BDB68C3F30223C3F168
:1004B0000704042C28BF04241D1D062D01D9DD1EB0
:1004C00000E00025012303FA04F4013C2140A94087
:1004D000AB40013B1A400A43002806DA00F00F0047
:1004E0001201D2B2074B1A5407E01201D2B200F146
:1004F000604000F5614080F8002330BC704700BFC9
:1005000000ED00E014ED00E00138B0F1807F0AD288
:10051000064B5860F021064A82F8231000209860AC
:1005200007221A6070470120704700BF10E000E00A
:1005300000ED00E0042805D1054A136843F00403E8
:1005400013607047024A136823F004031360704776
:1005500010E000E0704700BF08B5FFF7FBFF08BDE3
:10056000F0B583B00024BBE00123A3400A6803EA8E
:100570000205AB4240F0B3804A68022A01D0122A39
:1005800010D1E608083650F826C004F0070297009C
:100590000F22BA402CEA020E0A69BA404EEA020261
:1005A00040F82620026867000326BE40F64302EAB0
:1005B000060E4A6802F00302BA404EEA02020260E6
:1005C0004A6802F1FF3EBEF1010F03D9112A01D0A2
:1005D000122A10D1826806EA020ECA68BA404EEAB0
:1005E00002028260426822EA03034A68C2F30012F0
:1005F000A2401A434260C3681E408B68BB4033432D
:10060000C3604B6813F0805F69D000230193374BC0
:100610005A6C42F480425A645B6C03F48043019349
:10062000019BA608B21C324B53F8222004F00303AE
:100630009B000F279F4022EA07072E4A904211D0C5
:1006400002F5806290420FD002F5806290420DD098
:1006500002F5806290420BD002F58062904209D18F
:10066000042208E0002206E0012204E0022202E067
:10067000032200E0072202FA03F33B4302361C4A3E
:1006800042F826301C4B1A68EB4302EA03064F6817
:1006900017F4803F01D045EA0206174A16605268F7
:1006A00003EA02064F6817F4003F01D045EA02064C
:1006B000114A5660926803EA02064F6817F4801FD9
:1006C00001D045EA02060C4A9660D26813404E6893
:1006D00016F4001F01D045EA0203074AD360013433
:1006E0000F2C7FF641AF03B0F0BD00BF00380240D1
:1006F0000038014000000240003C014003691942FB
:1007000001D0012070470020704700BF0AB181610D
:1007100070470904816170474369594041617047DE
:1007200030B583B00446036813F0010F5AD09F4BD5
:100730009B6803F00C03042B0AD09C4B9B6803F0CE
:100740000C03082B0DD1994B5B6813F4800F08D074
:10075000964B1B6813F4003F44D06368002B41D1D3
:100760009DE16368B3F5803F05D1904A136843F477
:100770008033136015E0B3F5A02F09D18B4B1A68B5
:1007800042F480221A601A6842F480321A6008E04B
:10079000864B1A6822F480321A601A6822F480228A
:1007A0001A6063687BB1FFF753FE054605E0FFF76B
:1007B0004FFE401B642800F274817C4B1B6813F4CD
:1007C000003FF4D00EE0FFF743FE054605E0FFF7DB
:1007D0003FFE401B642800F26681744B1B6813F4D3
:1007E000003FF4D1236813F0020F5AD06F4B9B687F
:1007F00013F00C0F0AD06D4B9B6803F00C03082B11
:100800001BD16A4B5B6813F4800F16D1674B1B68D2
:1008100013F0020F03D0E368012B40F046816348D8
:10082000036823F0F8012369F82292FAA2F2B2FADF
:1008300082F293400B43036033E0E368FBB1012293
:100840005B4B1A60FFF704FE054605E0FFF700FE6C
:10085000401B022800F22B81544B1B6813F0020F3F
:10086000F4D05248036823F0F8012369F82292FA81
:10087000A2F2B2FA82F293400B43036011E000222D
:100880004B4B1A60FFF7E4FD054605E0FFF7E0FD7E
:10089000401B022800F20D81444B1B6813F0020F2D
:1008A000F4D1236813F0080F26D0636993B10122B5
:1008B000404B1A60FFF7CCFD054605E0FFF7C8FD89
:1008C000401B022800F2F780384B5B6F13F0020FD9
:1008D000F4D011E00022374B1A60FFF7B9FD05464E
:1008E00005E0FFF7B5FD401B022800F2E6802F4B24
:1008F0005B6F13F0020FF4D1236813F0040F69D07B
:1009000000230193294B1A6C42F080521A641B6C2D
:1009100003F080530193019B274A136843F48073CB
:100920001360FFF795FD054605E0FFF791FD401BBD
:10093000022800F2C480204B1B6813F4807FF4D09F
:10094000A368012B05D1194A136F43F00103136704
:1009500014E0052B09D1154B1A6F42F004021A67F7
:100960001A6F42F001021A6708E0104B1A6F22F06A
:1009700001021A671A6F22F004021A67A3688BB18A
:10098000FFF766FD054607E0FFF762FD401B41F2F9
:100990008833984200F29580044B1B6F13F0020FCE
:1009A000F2D017E0FFF754FD05460EE00038024094
:1009B00000004742800E474200700040FFF748FDAC
:1009C000401B41F2883398427DD8454B1B6F13F092
:1009D000020FF3D1A369002B77D0414A926802F04D
:1009E0000C02082A73D0022B46D100223D4B1A601C
:1009F000FFF72EFD054604E0FFF72AFD401B022805
:100A000067D8374B1B6813F0007FF5D1E169236A83
:100A10001943636A47F6C07292FAA2F2B2FA82F2FE
:100A200093401943A36A5B085A1E4FF4403393FA6C
:100A3000A3F3B3FA83F302FA03F30B43E26A4FF032
:100A4000706191FAA1F1B1FA81F18A401343244A0D
:100A500053600122234B1A60FFF7FAFC044604E0BE
:100A6000FFF7F6FC001B022835D81D4B1B6813F05E
:100A7000007FF5D0002031E000221A4B1A60FFF70A
:100A8000E7FC044604E0FFF7E3FC001B022824D83F
:100A9000134B1B6813F0007FF5D100201EE00120EE
:100AA0001CE003201AE0032018E0012016E00320D8
:100AB00014E0032012E0032010E003200EE00320E6
:100AC0000CE003200AE0032008E0002006E00120FB
:100AD00004E0032002E0032000E0032003B030BD67
:100AE0000038024060004742244B9B6803F00C032F
:100AF000042B3FD0082B01D02148704710B41F4B66
:100B0000586800F03F005B6813F4800F10D01D4B55
:100B1000B3FBF0F0194B5A6847F6C0710A4091FADE
:100B2000A1F3B3FA83F322FA03F303FB00F310E01B
:100B3000134BB3FBF0F0114B5A6847F6C07402EA4E
:100B4000040194FAA4F2B2FA82F221FA02F202FB50
:100B500000F30A4A506800F440324FF4403090FAF3
:100B6000A0F0B0FA80F022FA00F001304000B3FBB0
:100B7000F0F001E00348704710BC704700380240B5
:100B80000024F40000127A0070B5674B1B6803F074
:100B90000F038B4208D2CBB2634A1370136803F081
:100BA0000F03994240F0AE80036813F0020F06D0A5
:100BB0005E4CA36823F0F00283681343A3600D46E4
:100BC0000446036813F0010F60D04268012A05D182
:100BD000564B1B6813F4003F0FD195E0931E012B79
:100BE00005D8524B1B6813F0007F06D18EE04F4BA7
:100BF0001B6813F0020F00F08B804C498B6823F0C8
:100C0000030313438B60FFF723FC06466368012B45
:100C10000ED106E0FFF71CFC801B41F2883398429E
:100C200078D8424B9B6803F00C03042BF2D12DE0E3
:100C3000022B0ED106E0FFF70BFC801B41F288333C
:100C4000984269D8394B9B6803F00C03082BF2D10A
:100C50001CE0032B15D106E0FFF7FAFB801B41F2E5
:100C6000883398425AD8314B9B6803F00C030C2B05
:100C7000F2D10BE0FFF7ECFB801B41F28833984286
:100C80004ED82A4B9B6813F00C0FF3D1264B1B68F0
:100C900003F00F039D4207D2EAB2234B1A701B6880
:100CA00003F00F039D423DD1236813F0040F06D0DB
:100CB0001E498B6823F4E052E36813438B6023687A
:100CC00013F0080F07D0194A936823F46043216991
:100CD00043EAC1039360FFF707FF144B9B6803F0DF
:100CE000F002F02393FAA3F3B3FA83F322FA03F3A7
:100CF0000F4AD35CD8400F4B18600020FFF770FB01
:100D0000002070BD012070BD012070BD012070BDAC
:100D1000012070BD032070BD032070BD032070BD95
:100D2000032070BD012070BD003C0240003802402D
:100D30006C1C00080C000020014B1868704700BFB5
:100D40000C000020FEE700BF08B50D4B1B6813B96F
:100D50000C4A0B4B1A600A4B1A68C31C23F003039E
:100D6000134409498B4206D900F040FA0C23036072
:100D70004FF0FF3008BD02490B60104608BD00BFB0
:100D80007C00002018010020007C0120012303606A
:100D9000014B0B60704700BF040000200FB400B58A
:100DA00083B004AB53F8042B01938021064800F074
:100DB00059FA002803DD0146034800F007F803B0A4
:100DC0005DF804EB04B07047840000204FF0FF3062
:100DD000704700BF08B500F099F9024B024A9A60CB
:100DE00008BD00BF00ED00E00000000808B500F0FD
:100DF000ADF908BDF8B504460D4617461E4626480F
:100E0000FFF7CCFF21682548FFF7C8FF6168244839
:100E1000FFF7C4FFA1682348FFF7C0FFE16822483D
:100E2000FFF7BCFF21692148FFF7B8FF616920483F
:100E3000FFF7B4FFA1691F48FFF7B0FFE1691E4843
:100E4000FFF7ACFF1D48FFF7A9FF29461C48FFF735
:100E5000A5FF1C4CE16A1C48FFF7A0FF216B1B4853
:100E6000FFF79CFFE16B1A48FFF798FF15F0800F22
:100E700003D039461748FFF791FF15F4004F03D010
:100E800031461548FFF78AFF1448FFF787FF069998
:100E90001348FFF783FFF8BD141B0008241B00084C
:100EA000341B0008441B0008541B0008641B000886
:100EB000741B0008841B0008941B0008A41B000876
:100EC000B01B000800ED00E0C01B0008D01B0008AC
:100ED000E01B0008F01B0008001C0008101C0008A4
:100EE000181C0008FEE7000030B58BB00024019408
:100EF000274B1A6B42F004021A631A6B02F00402C9
:100F00000192019A02941A6B42F080021A631A6BE2
:100F100002F080020292029A03941A6B42F00102DC
:100F20001A631A6B02F001020392039A04941A6B7B
:100F300042F002021A631B6B03F002030493049B4A
:100F4000144D224620212846FFF7E0FB4FF40053C2
:100F50000593114B0693079405A91048FFF700FB72
:100F60000C230593022306930794089407230993FF
:100F700005A92846FFF7F4FA2023059301230693D9
:100F80000794089405A92846FFF7EAFA0BB030BD8C
:100F9000003802400000024000002110000802401A
:100FA000FEE700BF00B595B0002201922A4B196CF4
:100FB00041F0805119641B6C03F080530193019B35
:100FC000029226490B6823F4404343F400430B602C
:100FD0000B6803F440430293029B02210891012312
:100FE0000B9310230C930E910F9210934FF4A87350
:100FF0001193042312930723139308A8FFF790FB80
:1010000018B190211648FFF7CBFF0F23039302215D
:101010000491002305934FF480520692079303A88E
:10102000FFF7B2FD18B19E210D48FFF7B9FFFFF79A
:1010300083FE0C4BA3FB00308009FFF765FA042008
:10104000FFF778FA002211464FF0FF30FFF72AFA37
:1010500015B05DF804FB00BF00380240007000408E
:101060005C1C0008D34D621008B5FFF7CFF9FFF7FD
:1010700099FFFFF739FF4FF400510748FFF73EFB98
:101080000028F8D120210548FFF746FB4FF4FA70FD
:10109000FFF7E4F9F6E700BF000802400000024055
:1010A00008B50720FFF7ECF9002211466FF00B009E
:1010B000FFF7F8F9002211466FF00A00FFF7F2F986
:1010C000002211466FF00900FFF7ECF900221146EB
:1010D0006FF00400FFF7E6F9002211466FF00300FD
:1010E000FFF7E0F9002211466FF00100FFF7DAF98F
:1010F000002211464FF0FF30FFF7D4F908BD00BFC2
:1011000008B5FFF79DF9FFF727FA08BD0C4B1A68E1
:1011100042F001021A60002199601A6822F084727C
:1011200022F480321A60074A5A601A6822F4802238
:101130001A60D9604FF00062034B9A60704700BF9D
:10114000003802401030002400ED00E0224B9B6884
:1011500003F00C03042B07D0082B09D0002B2DD152
:101160001E4A1F4B1A602CE01E4A1D4B1A6028E0D5
:10117000194B5A685B6803F03F0312F4800F09D0E3
:10118000184AB2FBF3F2144B5B68C3F3881303FBFA
:1011900002F208E0114AB2FBF3F30F4A5168C1F3BF
:1011A000881101FB03F20C4B5B68C3F3014301336D
:1011B0005B00B2FBF3F30A4A136002E0074A084BF4
:1011C0001A60054B9B68C3F30313074AD15C044ABA
:1011D0001368CB4013607047003802400024F400CD
:1011E0000C00002040787D016C1C0008014B186841
:1011F000704700BF7000002010B5431E0A449142A2
:1012000004D011F8014B03F8014FF8E710BD30B5D9
:10121000141E05469BB0184604DA8B232B604FF052
:10122000FF301DE04FF40273ADF80C3014BF04F131
:10123000FF332346029305934FF6FF730091049109
:10124000ADF80E3002461E9B6946284600F072F843
:10125000431CBCBF8B232B6014B1009B00221A706F
:101260001BB030BD07B5009313460A46014603483C
:101270000068FFF7CCFF03B05DF804FB70000020AE
:101280002DE9F0478E689E4282460C46914698466C
:101290003ED88A8912F4906F3AD0256809696F1A8E
:1012A0006569022305EB450595FBF3F57B1C43447B
:1012B0009D4238BF1D4653050FD5294600F08AFBD5
:1012C000064698B13A462169FFF796FFA38923F4B1
:1012D000906343F08003A38113E02A4600F0D8FB1B
:1012E000064670B92169504600F026FB0C23CAF867
:1012F0000030A38943F04003A3814FF0FF30BDE8E5
:10130000F087266165613E44ED1B2660A560464678
:10131000464528BF464632464946206800F0F0FA66
:10132000A3689B1BA36023681E4426600020BDE8C1
:10133000F08700002DE9F04F9DB0804603938B8924
:101340001C060D4616460DD50B695BB9402100F011
:1013500041FB2860286118B90C23C8F80030CDE0A3
:1013600040236B610023099320238DF82930DFF897
:101370009CB130238DF82A3037463C4614F8013BA7
:101380001BB9B7EB060910D003E0252BF9D027468F
:10139000F3E74B46324629464046FFF771FF0130DE
:1013A00000F0A780099B4B4409933B78002B00F089
:1013B000A08000234FF0FF32049307930592069319
:1013C0008DF853301A930126052221784E4800F0FB
:1013D00047FA671C049B38B14B4A801A06FA00F0A2
:1013E000184304903C46EFE7D90644BF20228DF80D
:1013F00053201A0744BF2B228DF8532022782A2A23
:1014000003D0079A00210A200BE0039A111D1268ED
:101410000391002A10DA524243F00200079204902E
:101420000BE0274601343B78303B092B03D800FB07
:1014300002320121F5E701B107923B782E2B1ED134
:101440007B782A2B0AD1039B1A1D1B680392002B61
:10145000B8BF4FF0FF330237059310E00023059328
:10146000781C19460A24074601303A78303A092A8E
:1014700003D804FB01210123F5E703B10591032201
:101480003978224800F0ECF940B14023CBEB000062
:1014900003FA00F0049B18430490013739781C4884
:1014A0008DF8281006227E1C00F0DAF988B1194B5D
:1014B00033B9039B073323F007030833039314E086
:1014C00003AB00932A46144B04A94046AFF30080B7
:1014D00007E003AB00932A460F4B04A9404600F0F7
:1014E00093F8B0F1FF3F824603D0099B5344099320
:1014F00042E7AB895B0601D4099801E04FF0FF3069
:101500001DB0BDE8F08F00BF7C1C0008821C0008E5
:10151000861C000800000000811200082DE9F04739
:1015200091461F460A698B68DDF820809342B8BF58
:101530001346C9F8003091F8432006460C4612B114
:101540000133C9F800302368990642BFD9F800304A
:101550000233C9F80030256815F0060510D104F1F2
:10156000190A07E00123524639463046C047013088
:101570001AD00135E368D9F800209B1A9D42F1DBAF
:1015800094F843302268003318BF012392060FD528
:10159000E1185A1C302081F84300224494F8451089
:1015A00082F84310023303E04FF0FF30BDE8F087CC
:1015B00004F1430239463046C0470130F4D0226876
:1015C000D9F80050E36802F00602042A08BF5D1B48
:1015D0002269A3680CBF25EAE57500259342C4BFC4
:1015E0009B1AED184FF000091A344D4509D001231C
:1015F000224639463046C0470130D5D009F10109AD
:10160000F3E70020BDE8F0872DE9F04317460A7E96
:1016100085B06E2A984606460C460C9B01F1430E97
:1016200000F0AE8011D8632A22D009D8002A00F039
:10163000BB80582A40F0CA8081F84520834955E094
:10164000642A1ED0692A1CD0C0E0732A00F0B08042
:1016500009D86F2A2ED0702A40F0B8800A6842F06C
:1016600020020A603EE0752A24D0782A3AD0ADE004
:101670001A6801F14205111D1960136884F842309F
:10168000A8E021681A6811F0800F02D0111D1960BE
:1016900008E011F0400F02F10401196002D0B2F924
:1016A000003000E01368002B3CDA2D225B4284F806
:1016B000432037E021681A6811F0800F02D0111D15
:1016C000196007E011F0400F02F10401196001D028
:1016D000138800E01368227E5C496F2A14BF0A2237
:1016E00008221BE078225A4984F8452022681868AD
:1016F00012F0800F00F104051D6003D1550601D5DD
:10170000038800E00368D00744BF42F02002226053
:101710001BB9226822F0200222601022002084F8E7
:10172000430001E049490A226568A560002D08DBF5
:10173000206820F0040020602BB9002D7DD1754673
:101740000CE0002B79D07546B3FBF2F002FB1033AE
:10175000CB5C05F8013D03460028F5D1082A0BD1E2
:101760002368DA0708D5236962689A42DEBF30230E
:1017700005F8013C05F1FF35C5EB0E0323612EE0B2
:1017800008681A68496910F0800F03D0101D1860AE
:10179000136808E010F0400F02F1040018601368AD
:1017A00001D0198000E0196000232361754616E01E
:1017B0001A68111D1960156862680021284600F03A
:1017C0004FF808B1401B6060636804E004F1420513
:1017D00084F8422001232361002384F84330CDF8AC
:1017E00000803B4603AA21463046FFF797FE0130B2
:1017F00002D14FF0FF3026E023692A4639463046B1
:10180000C0470130F5D023689B0710D5002504F1AF
:10181000190907E001234A4639463046C0470130DE
:10182000E7D00135E368039A9B1A9D42F2DBE0683A
:10183000039B9842B8BF184605E00B7884F8423005
:1018400004F142058AE705B0BDE8F0838D1C00086D
:101850009E1C0008000000000000000000000000C6
:1018600001F0FF01102A2BDB10F0070F08D010F851
:10187000013B013A8B422DD010F0070F42B3F6D155
:10188000F0B441EA012141EA014122F007047FF06E
:1018900000070023F0E80256083C85EA010586EAC5
:1018A000010685FA47F5A3FA87F586FA47F6A5FA01
:1018B00087F68EB9EED1F0BC01F0FF0102F007020D
:1018C00032B110F8013B013A83EA010313B1F8D1B8
:1018D0000020704701387047002D06BF3546033899
:1018E000073815F0010F07D1013015F4807F02BFD2
:1018F000013015F4C03F0130F0BC0138704700BF23
:10190000884210B501EB020301D8421E0BE0984259
:10191000FBD28118D21AD34204D013F8014D01F83A
:10192000014DF8E710BD994204D011F8014B02F8BF
:10193000014FF8E710BD000038B50546002946D034
:1019400051F8043C0C1F002BB8BFE41800F0D6F887
:101950001F4A1368114613B96360146032E0A34252
:101960000ED92268A018834204BF18685B686360C0
:1019700004BF121822600C6024E0A24203D8134670
:101980005A68002AF9D118681918A1420BD12168A8
:10199000014458188242196014D1106852685A6084
:1019A000014419600EE002D90C232B600AE0216883
:1019B0006018824204BF10685268626004BF091850
:1019C00021605C602846BDE8384000F098B838BD1A
:1019D0000801002070B5CD1C25F0030508350C2D3D
:1019E00038BF0C25002D064601DBA94202D90C2385
:1019F000336046E000F082F8234B1C681A4621460B
:101A0000A1B10B685B1B0ED40B2B03D90B60CC1858
:101A1000CD501EE08C420DBF63684B68636013605D
:101A200018BF0C4615E00C464968E9E7174C2368D7
:101A30001BB9304600F052F820602946304600F0CD
:101A40004DF8431C18D0C41C24F00304A0420DD14F
:101A50002560304600F053F804F10B00231D20F000
:101A60000700C31A0ED05A42E25070BD211A304608
:101A700000F034F80130EBD10C233360304600F035
:101A80003EF8002070BD00BF0801002004010020C6
:101A9000F8B5074615460E4621B91146BDE8F8408F
:101AA000FFF798BF1AB9FFF747FF2846F8BD00F0C7
:101AB00027F885420ED929463846FFF78BFF0446A2
:101AC00050B131462A46FFF797FB31463846FFF7BB
:101AD00033FF01E03046F8BD2046F8BD38B5064C6E
:101AE0000023054608462360FFF72EF9431C02D168
:101AF000236803B12B6038BD100100207047704788
:101B000051F8040C0028BEBF091851F8043CC01855
:101B100004387047537461636B206672616D653A77
:101B20000A000000205230203D2020253038580A7D
:101B300000000000205231203D2020253038580A76
:101B400000000000205232203D2020253038580A65
:101B500000000000205233203D2020253038580A54
:101B60000000000020523132203D20253038580A34
:101B700000000000204C52203D2020253038580A1B
:101B800000000000205043203D2020253038580A16
:101B90000000000020505352203D20253038580AC4
:101BA000000000004653522F4641523A0A000000FE
:101BB0002043465352203D2020253038580A00004B
:101BC0002048465352203D2020253038580A000036
:101BD0002044465352203D2020253038580A00002A
:101BE0002041465352203D2020253038580A00001D
:101BF000204D4D464152203D20253038580A0000E6
:101C00002042464152203D2020253038580A00000D
:101C10004D6973630A000000204C522F4558435F02
:101C200052455455524E3D20253038580A00000088
:101C30005B486172644661756C745D0A0000000067
:101C40005B4275734661756C745D0A005B55736128
:101C500067654661756C745D0A0000002E2E2F7357
:101C600072632F6D61696E2E63000000000000003A
:101C7000000000000102030406070809232D302B91
:101C80002000686C4C00656667454647003031327D
:101C900033343536373839414243444546003031D4
:0F1CA00032333435363738396162636465660034
:101CB0007856341280000020000000000024F40058
:101CC0000000000000000000000000000000000014
:101CD0000000000000000000000000000000000004
:101CE00000000000000000000000000000000000F4
:101CF00000000000000000000000000000000000E4
:101D000000000000000000000000000000000000D3
:101D100000000000000000000000000000000000C3
:081D20001000002032547698F7
:040000050800019559
:00000001FF
